{
	"_format": "hh-sol-artifact-1",
	"contractName": "TicketNFT",
	"sourceName": "contracts/TicketNFT.sol",
	"abi": [
		{
			"inputs": [],
			"stateMutability": "nonpayable",
			"type": "constructor"
		},
		{
			"inputs": [
				{
					"internalType": "address",
					"name": "sender",
					"type": "address"
				},
				{
					"internalType": "uint256",
					"name": "tokenId",
					"type": "uint256"
				},
				{
					"internalType": "address",
					"name": "owner",
					"type": "address"
				}
			],
			"name": "ERC721IncorrectOwner",
			"type": "error"
		},
		{
			"inputs": [
				{
					"internalType": "address",
					"name": "operator",
					"type": "address"
				},
				{
					"internalType": "uint256",
					"name": "tokenId",
					"type": "uint256"
				}
			],
			"name": "ERC721InsufficientApproval",
			"type": "error"
		},
		{
			"inputs": [
				{
					"internalType": "address",
					"name": "approver",
					"type": "address"
				}
			],
			"name": "ERC721InvalidApprover",
			"type": "error"
		},
		{
			"inputs": [
				{
					"internalType": "address",
					"name": "operator",
					"type": "address"
				}
			],
			"name": "ERC721InvalidOperator",
			"type": "error"
		},
		{
			"inputs": [
				{
					"internalType": "address",
					"name": "owner",
					"type": "address"
				}
			],
			"name": "ERC721InvalidOwner",
			"type": "error"
		},
		{
			"inputs": [
				{
					"internalType": "address",
					"name": "receiver",
					"type": "address"
				}
			],
			"name": "ERC721InvalidReceiver",
			"type": "error"
		},
		{
			"inputs": [
				{
					"internalType": "address",
					"name": "sender",
					"type": "address"
				}
			],
			"name": "ERC721InvalidSender",
			"type": "error"
		},
		{
			"inputs": [
				{
					"internalType": "uint256",
					"name": "tokenId",
					"type": "uint256"
				}
			],
			"name": "ERC721NonexistentToken",
			"type": "error"
		},
		{
			"inputs": [
				{
					"internalType": "address",
					"name": "owner",
					"type": "address"
				}
			],
			"name": "OwnableInvalidOwner",
			"type": "error"
		},
		{
			"inputs": [
				{
					"internalType": "address",
					"name": "account",
					"type": "address"
				}
			],
			"name": "OwnableUnauthorizedAccount",
			"type": "error"
		},
		{
			"anonymous": false,
			"inputs": [
				{
					"indexed": true,
					"internalType": "address",
					"name": "owner",
					"type": "address"
				},
				{
					"indexed": true,
					"internalType": "address",
					"name": "approved",
					"type": "address"
				},
				{
					"indexed": true,
					"internalType": "uint256",
					"name": "tokenId",
					"type": "uint256"
				}
			],
			"name": "Approval",
			"type": "event"
		},
		{
			"anonymous": false,
			"inputs": [
				{
					"indexed": true,
					"internalType": "address",
					"name": "owner",
					"type": "address"
				},
				{
					"indexed": true,
					"internalType": "address",
					"name": "operator",
					"type": "address"
				},
				{
					"indexed": false,
					"internalType": "bool",
					"name": "approved",
					"type": "bool"
				}
			],
			"name": "ApprovalForAll",
			"type": "event"
		},
		{
			"anonymous": false,
			"inputs": [
				{
					"indexed": false,
					"internalType": "uint256",
					"name": "_fromTokenId",
					"type": "uint256"
				},
				{
					"indexed": false,
					"internalType": "uint256",
					"name": "_toTokenId",
					"type": "uint256"
				}
			],
			"name": "BatchMetadataUpdate",
			"type": "event"
		},
		{
			"anonymous": false,
			"inputs": [
				{
					"indexed": false,
					"internalType": "uint256",
					"name": "_tokenId",
					"type": "uint256"
				}
			],
			"name": "MetadataUpdate",
			"type": "event"
		},
		{
			"anonymous": false,
			"inputs": [
				{
					"indexed": true,
					"internalType": "address",
					"name": "previousOwner",
					"type": "address"
				},
				{
					"indexed": true,
					"internalType": "address",
					"name": "newOwner",
					"type": "address"
				}
			],
			"name": "OwnershipTransferred",
			"type": "event"
		},
		{
			"anonymous": false,
			"inputs": [
				{
					"indexed": false,
					"internalType": "uint256",
					"name": "tokenId",
					"type": "uint256"
				},
				{
					"indexed": false,
					"internalType": "address",
					"name": "owner",
					"type": "address"
				},
				{
					"indexed": false,
					"internalType": "string",
					"name": "eventId",
					"type": "string"
				},
				{
					"indexed": false,
					"internalType": "string",
					"name": "seat",
					"type": "string"
				}
			],
			"name": "TicketMinted",
			"type": "event"
		},
		{
			"anonymous": false,
			"inputs": [
				{
					"indexed": true,
					"internalType": "address",
					"name": "from",
					"type": "address"
				},
				{
					"indexed": true,
					"internalType": "address",
					"name": "to",
					"type": "address"
				},
				{
					"indexed": true,
					"internalType": "uint256",
					"name": "tokenId",
					"type": "uint256"
				}
			],
			"name": "Transfer",
			"type": "event"
		},
		{
			"inputs": [
				{
					"internalType": "address",
					"name": "to",
					"type": "address"
				},
				{
					"internalType": "uint256",
					"name": "tokenId",
					"type": "uint256"
				}
			],
			"name": "approve",
			"outputs": [],
			"stateMutability": "nonpayable",
			"type": "function"
		},
		{
			"inputs": [
				{
					"internalType": "address",
					"name": "owner",
					"type": "address"
				}
			],
			"name": "balanceOf",
			"outputs": [
				{
					"internalType": "uint256",
					"name": "",
					"type": "uint256"
				}
			],
			"stateMutability": "view",
			"type": "function"
		},
		{
			"inputs": [
				{
					"internalType": "string",
					"name": "",
					"type": "string"
				},
				{
					"internalType": "string",
					"name": "",
					"type": "string"
				}
			],
			"name": "eventSeatToToken",
			"outputs": [
				{
					"internalType": "uint256",
					"name": "",
					"type": "uint256"
				}
			],
			"stateMutability": "view",
			"type": "function"
		},
		{
			"inputs": [
				{
					"internalType": "uint256",
					"name": "tokenId",
					"type": "uint256"
				}
			],
			"name": "getApproved",
			"outputs": [
				{
					"internalType": "address",
					"name": "",
					"type": "address"
				}
			],
			"stateMutability": "view",
			"type": "function"
		},
		{
			"inputs": [
				{
					"internalType": "address",
					"name": "owner",
					"type": "address"
				},
				{
					"internalType": "address",
					"name": "operator",
					"type": "address"
				}
			],
			"name": "isApprovedForAll",
			"outputs": [
				{
					"internalType": "bool",
					"name": "",
					"type": "bool"
				}
			],
			"stateMutability": "view",
			"type": "function"
		},
		{
			"inputs": [
				{
					"internalType": "address",
					"name": "recipient",
					"type": "address"
				},
				{
					"internalType": "string",
					"name": "eventId",
					"type": "string"
				},
				{
					"internalType": "string",
					"name": "seat",
					"type": "string"
				},
				{
					"internalType": "string",
					"name": "tokenURI",
					"type": "string"
				}
			],
			"name": "mintTicket",
			"outputs": [
				{
					"internalType": "uint256",
					"name": "",
					"type": "uint256"
				}
			],
			"stateMutability": "nonpayable",
			"type": "function"
		},
		{
			"inputs": [],
			"name": "name",
			"outputs": [
				{
					"internalType": "string",
					"name": "",
					"type": "string"
				}
			],
			"stateMutability": "view",
			"type": "function"
		},
		{
			"inputs": [],
			"name": "owner",
			"outputs": [
				{
					"internalType": "address",
					"name": "",
					"type": "address"
				}
			],
			"stateMutability": "view",
			"type": "function"
		},
		{
			"inputs": [
				{
					"internalType": "uint256",
					"name": "tokenId",
					"type": "uint256"
				}
			],
			"name": "ownerOf",
			"outputs": [
				{
					"internalType": "address",
					"name": "",
					"type": "address"
				}
			],
			"stateMutability": "view",
			"type": "function"
		},
		{
			"inputs": [],
			"name": "renounceOwnership",
			"outputs": [],
			"stateMutability": "nonpayable",
			"type": "function"
		},
		{
			"inputs": [
				{
					"internalType": "address",
					"name": "from",
					"type": "address"
				},
				{
					"internalType": "address",
					"name": "to",
					"type": "address"
				},
				{
					"internalType": "uint256",
					"name": "tokenId",
					"type": "uint256"
				}
			],
			"name": "safeTransferFrom",
			"outputs": [],
			"stateMutability": "nonpayable",
			"type": "function"
		},
		{
			"inputs": [
				{
					"internalType": "address",
					"name": "from",
					"type": "address"
				},
				{
					"internalType": "address",
					"name": "to",
					"type": "address"
				},
				{
					"internalType": "uint256",
					"name": "tokenId",
					"type": "uint256"
				},
				{
					"internalType": "bytes",
					"name": "data",
					"type": "bytes"
				}
			],
			"name": "safeTransferFrom",
			"outputs": [],
			"stateMutability": "nonpayable",
			"type": "function"
		},
		{
			"inputs": [
				{
					"internalType": "address",
					"name": "operator",
					"type": "address"
				},
				{
					"internalType": "bool",
					"name": "approved",
					"type": "bool"
				}
			],
			"name": "setApprovalForAll",
			"outputs": [],
			"stateMutability": "nonpayable",
			"type": "function"
		},
		{
			"inputs": [
				{
					"internalType": "bytes4",
					"name": "interfaceId",
					"type": "bytes4"
				}
			],
			"name": "supportsInterface",
			"outputs": [
				{
					"internalType": "bool",
					"name": "",
					"type": "bool"
				}
			],
			"stateMutability": "view",
			"type": "function"
		},
		{
			"inputs": [],
			"name": "symbol",
			"outputs": [
				{
					"internalType": "string",
					"name": "",
					"type": "string"
				}
			],
			"stateMutability": "view",
			"type": "function"
		},
		{
			"inputs": [
				{
					"internalType": "uint256",
					"name": "",
					"type": "uint256"
				}
			],
			"name": "tickets",
			"outputs": [
				{
					"internalType": "string",
					"name": "eventId",
					"type": "string"
				},
				{
					"internalType": "string",
					"name": "seat",
					"type": "string"
				},
				{
					"internalType": "address",
					"name": "originalOwner",
					"type": "address"
				}
			],
			"stateMutability": "view",
			"type": "function"
		},
		{
			"inputs": [
				{
					"internalType": "uint256",
					"name": "tokenId",
					"type": "uint256"
				}
			],
			"name": "tokenURI",
			"outputs": [
				{
					"internalType": "string",
					"name": "",
					"type": "string"
				}
			],
			"stateMutability": "view",
			"type": "function"
		},
		{
			"inputs": [
				{
					"internalType": "address",
					"name": "from",
					"type": "address"
				},
				{
					"internalType": "address",
					"name": "to",
					"type": "address"
				},
				{
					"internalType": "uint256",
					"name": "tokenId",
					"type": "uint256"
				}
			],
			"name": "transferFrom",
			"outputs": [],
			"stateMutability": "nonpayable",
			"type": "function"
		},
		{
			"inputs": [
				{
					"internalType": "address",
					"name": "newOwner",
					"type": "address"
				}
			],
			"name": "transferOwnership",
			"outputs": [],
			"stateMutability": "nonpayable",
			"type": "function"
		},
		{
			"inputs": [
				{
					"internalType": "uint256",
					"name": "tokenId",
					"type": "uint256"
				}
			],
			"name": "verifyTicket",
			"outputs": [
				{
					"internalType": "bool",
					"name": "",
					"type": "bool"
				},
				{
					"internalType": "string",
					"name": "",
					"type": "string"
				},
				{
					"internalType": "string",
					"name": "",
					"type": "string"
				},
				{
					"internalType": "address",
					"name": "",
					"type": "address"
				}
			],
			"stateMutability": "view",
			"type": "function"
		}
	],
	"bytecode": "0x60806040523480156200001157600080fd5b50336040518060400160405280600a81526020017f445449585469636b6574000000000000000000000000000000000000000000008152506040518060400160405280600481526020017f4454495800000000000000000000000000000000000000000000000000000000815250816000908162000090919062000472565b508060019081620000a2919062000472565b505050600073ffffffffffffffffffffffffffffffffffffffff168173ffffffffffffffffffffffffffffffffffffffff16036200011a5760006040517f1e4fbdf70000000000000000000000000000000000000000000000000000000081526004016200011191906200059e565b60405180910390fd5b6200012b816200013260201b60201c565b50620005bb565b6000600760009054906101000a900473ffffffffffffffffffffffffffffffffffffffff16905081600760006101000a81548173ffffffffffffffffffffffffffffffffffffffff021916908373ffffffffffffffffffffffffffffffffffffffff1602179055508173ffffffffffffffffffffffffffffffffffffffff168173ffffffffffffffffffffffffffffffffffffffff167f8be0079c531659141344cd1fd0a4f28419497f9722a3daafe3b4186f6b6457e060405160405180910390a35050565b600081519050919050565b7f4e487b7100000000000000000000000000000000000000000000000000000000600052604160045260246000fd5b7f4e487b7100000000000000000000000000000000000000000000000000000000600052602260045260246000fd5b600060028204905060018216806200027a57607f821691505b60208210810362000290576200028f62000232565b5b50919050565b60008190508160005260206000209050919050565b60006020601f8301049050919050565b600082821b905092915050565b600060088302620002fa7fffffffffffffffffffffffffffffffffffffffffffffffffffffffffffffffff82620002bb565b620003068683620002bb565b95508019841693508086168417925050509392505050565b6000819050919050565b6000819050919050565b6000620003536200034d62000347846200031e565b62000328565b6200031e565b9050919050565b6000819050919050565b6200036f8362000332565b620003876200037e826200035a565b848454620002c8565b825550505050565b600090565b6200039e6200038f565b620003ab81848462000364565b505050565b5b81811015620003d357620003c760008262000394565b600181019050620003b1565b5050565b601f8211156200042257620003ec8162000296565b620003f784620002ab565b8101602085101562000407578190505b6200041f6200041685620002ab565b830182620003b0565b50505b505050565b600082821c905092915050565b6000620004476000198460080262000427565b1980831691505092915050565b600062000462838362000434565b9150826002028217905092915050565b6200047d82620001f8565b67ffffffffffffffff81111562000499576200049862000203565b5b620004a5825462000261565b620004b2828285620003d7565b600060209050601f831160018114620004ea5760008415620004d5578287015190505b620004e1858262000454565b86555062000551565b601f198416620004fa8662000296565b60005b828110156200052457848901518255600182019150602085019450602081019050620004fd565b8683101562000544578489015162000540601f89168262000434565b8355505b6001600288020188555050505b505050505050565b600073ffffffffffffffffffffffffffffffffffffffff82169050919050565b6000620005868262000559565b9050919050565b620005988162000579565b82525050565b6000602082019050620005b560008301846200058d565b92915050565b61328580620005cb6000396000f3fe608060405234801561001057600080fd5b506004361061012c5760003560e01c8063715018a6116100ad578063b88d4fde11610071578063b88d4fde1461035a578063c5e5b43714610376578063c87b56dd146103a6578063e985e9c5146103d6578063f2fde38b146104065761012c565b8063715018a6146102c85780638da5cb5b146102d257806395d89b41146102f0578063a22cb4651461030e578063b70d59b11461032a5761012c565b806342842e0e116100f457806342842e0e146101e757806350b4471214610203578063543cb81f146102355780636352211e1461026857806370a08231146102985761012c565b806301ffc9a71461013157806306fdde0314610161578063081812fc1461017f578063095ea7b3146101af57806323b872dd146101cb575b600080fd5b61014b60048036038101906101469190612367565b610422565b60405161015891906123af565b60405180910390f35b610169610483565b604051610176919061245a565b60405180910390f35b610199600480360381019061019491906124b2565b610515565b6040516101a69190612520565b60405180910390f35b6101c960048036038101906101c49190612567565b610531565b005b6101e560048036038101906101e091906125a7565b610547565b005b61020160048036038101906101fc91906125a7565b610649565b005b61021d600480360381019061021891906124b2565b610669565b60405161022c939291906125fa565b60405180910390f35b61024f600480360381019061024a91906124b2565b6107c3565b60405161025f949392919061263f565b60405180910390f35b610282600480360381019061027d91906124b2565b6109d3565b60405161028f9190612520565b60405180910390f35b6102b260048036038101906102ad9190612692565b6109e5565b6040516102bf91906126ce565b60405180910390f35b6102d0610a9f565b005b6102da610ab3565b6040516102e79190612520565b60405180910390f35b6102f8610add565b604051610305919061245a565b60405180910390f35b61032860048036038101906103239190612715565b610b6f565b005b610344600480360381019061033f919061288a565b610b85565b60405161035191906126ce565b60405180910390f35b610374600480360381019061036f91906129e6565b610e5d565b005b610390600480360381019061038b9190612a69565b610e82565b60405161039d91906126ce565b60405180910390f35b6103c060048036038101906103bb91906124b2565b610ed3565b6040516103cd919061245a565b60405180910390f35b6103f060048036038101906103eb9190612ae1565b610fe6565b6040516103fd91906123af565b60405180910390f35b610420600480360381019061041b9190612692565b61107a565b005b6000634906490660e01b7bffffffffffffffffffffffffffffffffffffffffffffffffffffffff1916827bffffffffffffffffffffffffffffffffffffffffffffffffffffffff1916148061047c575061047b82611100565b5b9050919050565b60606000805461049290612b50565b80601f01602080910402602001604051908101604052809291908181526020018280546104be90612b50565b801561050b5780601f106104e05761010080835404028352916020019161050b565b820191906000526020600020905b8154815290600101906020018083116104ee57829003601f168201915b5050505050905090565b6000610520826111e2565b5061052a8261126a565b9050919050565b610543828261053e6112a7565b6112af565b5050565b600073ffffffffffffffffffffffffffffffffffffffff168273ffffffffffffffffffffffffffffffffffffffff16036105b95760006040517f64a0ae920000000000000000000000000000000000000000000000000000000081526004016105b09190612520565b60405180910390fd5b60006105cd83836105c86112a7565b6112c1565b90508373ffffffffffffffffffffffffffffffffffffffff168173ffffffffffffffffffffffffffffffffffffffff1614610643578382826040517f64283d7b00000000000000000000000000000000000000000000000000000000815260040161063a93929190612b81565b60405180910390fd5b50505050565b61066483838360405180602001604052806000815250610e5d565b505050565b600a60205280600052604060002060009150905080600001805461068c90612b50565b80601f01602080910402602001604051908101604052809291908181526020018280546106b890612b50565b80156107055780601f106106da57610100808354040283529160200191610705565b820191906000526020600020905b8154815290600101906020018083116106e857829003601f168201915b50505050509080600101805461071a90612b50565b80601f016020809104026020016040519081016040528092919081815260200182805461074690612b50565b80156107935780601f1061076857610100808354040283529160200191610793565b820191906000526020600020905b81548152906001019060200180831161077657829003601f168201915b5050505050908060020160009054906101000a900473ffffffffffffffffffffffffffffffffffffffff16905083565b600060608060006107d3856114db565b610812576040517f08c379a000000000000000000000000000000000000000000000000000000000815260040161080990612c04565b60405180910390fd5b6000600a600087815260200190815260200160002060405180606001604052908160008201805461084290612b50565b80601f016020809104026020016040519081016040528092919081815260200182805461086e90612b50565b80156108bb5780601f10610890576101008083540402835291602001916108bb565b820191906000526020600020905b81548152906001019060200180831161089e57829003601f168201915b505050505081526020016001820180546108d490612b50565b80601f016020809104026020016040519081016040528092919081815260200182805461090090612b50565b801561094d5780601f106109225761010080835404028352916020019161094d565b820191906000526020600020905b81548152906001019060200180831161093057829003601f168201915b505050505081526020016002820160009054906101000a900473ffffffffffffffffffffffffffffffffffffffff1673ffffffffffffffffffffffffffffffffffffffff1673ffffffffffffffffffffffffffffffffffffffff168152505090506001816000015182602001516109c3896109d3565b9450945094509450509193509193565b60006109de826111e2565b9050919050565b60008073ffffffffffffffffffffffffffffffffffffffff168273ffffffffffffffffffffffffffffffffffffffff1603610a585760006040517f89c62b64000000000000000000000000000000000000000000000000000000008152600401610a4f9190612520565b60405180910390fd5b600360008373ffffffffffffffffffffffffffffffffffffffff1673ffffffffffffffffffffffffffffffffffffffff168152602001908152602001600020549050919050565b610aa761151c565b610ab160006115a3565b565b6000600760009054906101000a900473ffffffffffffffffffffffffffffffffffffffff16905090565b606060018054610aec90612b50565b80601f0160208091040260200160405190810160405280929190818152602001828054610b1890612b50565b8015610b655780601f10610b3a57610100808354040283529160200191610b65565b820191906000526020600020905b815481529060010190602001808311610b4857829003601f168201915b5050505050905090565b610b81610b7a6112a7565b8383611669565b5050565b6000610b8f61151c565b6000600b85604051610ba19190612c60565b908152602001604051809103902084604051610bbd9190612c60565b90815260200160405180910390205414610c0c576040517f08c379a0000000000000000000000000000000000000000000000000000000008152600401610c0390612cc3565b60405180910390fd5b600160086000828254610c1f9190612d12565b925050819055506001600985604051610c389190612c60565b90815260200160405180910390206000828254610c559190612d12565b925050819055506000610c6b85600060046117d8565b90506000600986604051610c7f9190612c60565b90815260200160405180910390205490506000633b9aca0083610ca184611921565b610cac600854611921565b604051602001610cbe93929190612d46565b6040516020818303038152906040528051906020012060001c610ce19190612da6565b905060008111610d0157620186a0600854610cfc9190612d12565b610d03565b805b905060405180606001604052808881526020018781526020018973ffffffffffffffffffffffffffffffffffffffff16815250600a60008381526020019081526020016000206000820151816000019081610d5e9190612f83565b506020820151816001019081610d749190612f83565b5060408201518160020160006101000a81548173ffffffffffffffffffffffffffffffffffffffff021916908373ffffffffffffffffffffffffffffffffffffffff160217905550905050610dc988826119ef565b610dd38186611a0d565b80600b88604051610de49190612c60565b908152602001604051809103902087604051610e009190612c60565b9081526020016040518091039020819055507f1153adbee8c4659f6a491287940bca8c761ae9ba6e88277ba7f232dfb08d980381898989604051610e479493929190613055565b60405180910390a1809350505050949350505050565b610e68848484610547565b610e7c610e736112a7565b85858585611a69565b50505050565b600b8280516020810182018051848252602083016020850120818352809550505050505081805160208101820180518482526020830160208501208183528095505050505050600091509150505481565b6060610ede826111e2565b506000600660008481526020019081526020016000208054610eff90612b50565b80601f0160208091040260200160405190810160405280929190818152602001828054610f2b90612b50565b8015610f785780601f10610f4d57610100808354040283529160200191610f78565b820191906000526020600020905b815481529060010190602001808311610f5b57829003601f168201915b505050505090506000610f89611c1a565b90506000815103610f9e578192505050610fe1565b600082511115610fd3578082604051602001610fbb9291906130a8565b60405160208183030381529060405292505050610fe1565b610fdc84611c31565b925050505b919050565b6000600560008473ffffffffffffffffffffffffffffffffffffffff1673ffffffffffffffffffffffffffffffffffffffff16815260200190815260200160002060008373ffffffffffffffffffffffffffffffffffffffff1673ffffffffffffffffffffffffffffffffffffffff16815260200190815260200160002060009054906101000a900460ff16905092915050565b61108261151c565b600073ffffffffffffffffffffffffffffffffffffffff168173ffffffffffffffffffffffffffffffffffffffff16036110f45760006040517f1e4fbdf70000000000000000000000000000000000000000000000000000000081526004016110eb9190612520565b60405180910390fd5b6110fd816115a3565b50565b60007f80ac58cd000000000000000000000000000000000000000000000000000000007bffffffffffffffffffffffffffffffffffffffffffffffffffffffff1916827bffffffffffffffffffffffffffffffffffffffffffffffffffffffff191614806111cb57507f5b5e139f000000000000000000000000000000000000000000000000000000007bffffffffffffffffffffffffffffffffffffffffffffffffffffffff1916827bffffffffffffffffffffffffffffffffffffffffffffffffffffffff1916145b806111db57506111da82611c9a565b5b9050919050565b6000806111ee83611d04565b9050600073ffffffffffffffffffffffffffffffffffffffff168173ffffffffffffffffffffffffffffffffffffffff160361126157826040517f7e27328900000000000000000000000000000000000000000000000000000000815260040161125891906126ce565b60405180910390fd5b80915050919050565b60006004600083815260200190815260200160002060009054906101000a900473ffffffffffffffffffffffffffffffffffffffff169050919050565b600033905090565b6112bc8383836001611d41565b505050565b6000806112cd84611d04565b9050600073ffffffffffffffffffffffffffffffffffffffff168373ffffffffffffffffffffffffffffffffffffffff161461130f5761130e818486611f06565b5b600073ffffffffffffffffffffffffffffffffffffffff168173ffffffffffffffffffffffffffffffffffffffff16146113a057611351600085600080611d41565b6001600360008373ffffffffffffffffffffffffffffffffffffffff1673ffffffffffffffffffffffffffffffffffffffff168152602001908152602001600020600082825403925050819055505b600073ffffffffffffffffffffffffffffffffffffffff168573ffffffffffffffffffffffffffffffffffffffff1614611423576001600360008773ffffffffffffffffffffffffffffffffffffffff1673ffffffffffffffffffffffffffffffffffffffff168152602001908152602001600020600082825401925050819055505b846002600086815260200190815260200160002060006101000a81548173ffffffffffffffffffffffffffffffffffffffff021916908373ffffffffffffffffffffffffffffffffffffffff160217905550838573ffffffffffffffffffffffffffffffffffffffff168273ffffffffffffffffffffffffffffffffffffffff167fddf252ad1be2c89b69c2b068fc378daa952ba7f163c4a11628f55a4df523b3ef60405160405180910390a4809150509392505050565b60008073ffffffffffffffffffffffffffffffffffffffff166114fd83611d04565b73ffffffffffffffffffffffffffffffffffffffff1614159050919050565b6115246112a7565b73ffffffffffffffffffffffffffffffffffffffff16611542610ab3565b73ffffffffffffffffffffffffffffffffffffffff16146115a1576115656112a7565b6040517f118cdaa70000000000000000000000000000000000000000000000000000000081526004016115989190612520565b60405180910390fd5b565b6000600760009054906101000a900473ffffffffffffffffffffffffffffffffffffffff16905081600760006101000a81548173ffffffffffffffffffffffffffffffffffffffff021916908373ffffffffffffffffffffffffffffffffffffffff1602179055508173ffffffffffffffffffffffffffffffffffffffff168173ffffffffffffffffffffffffffffffffffffffff167f8be0079c531659141344cd1fd0a4f28419497f9722a3daafe3b4186f6b6457e060405160405180910390a35050565b600073ffffffffffffffffffffffffffffffffffffffff168273ffffffffffffffffffffffffffffffffffffffff16036116da57816040517f5b08ba180000000000000000000000000000000000000000000000000000000081526004016116d19190612520565b60405180910390fd5b80600560008573ffffffffffffffffffffffffffffffffffffffff1673ffffffffffffffffffffffffffffffffffffffff16815260200190815260200160002060008473ffffffffffffffffffffffffffffffffffffffff1673ffffffffffffffffffffffffffffffffffffffff16815260200190815260200160002060006101000a81548160ff0219169083151502179055508173ffffffffffffffffffffffffffffffffffffffff168373ffffffffffffffffffffffffffffffffffffffff167f17307eab39ab6107e8899845ad3d59bd9653f200f220920489ca2b5937696c31836040516117cb91906123af565b60405180910390a3505050565b606060008267ffffffffffffffff8111156117f6576117f561275f565b5b6040519080825280601f01601f1916602001820160405280156118285781602001600182028036833780820191505090505b50905060005b8381101561191557855181866118449190612d12565b10156118ba578581866118579190612d12565b81518110611868576118676130cc565b5b602001015160f81c60f81b828281518110611886576118856130cc565b5b60200101907effffffffffffffffffffffffffffffffffffffffffffffffffffffffffffff1916908160001a905350611902565b600060f81b8282815181106118d2576118d16130cc565b5b60200101907effffffffffffffffffffffffffffffffffffffffffffffffffffffffffffff1916908160001a9053505b808061190d906130fb565b91505061182e565b50809150509392505050565b60606000600161193084611fca565b01905060008167ffffffffffffffff81111561194f5761194e61275f565b5b6040519080825280601f01601f1916602001820160405280156119815781602001600182028036833780820191505090505b509050600082602001820190505b6001156119e4578080600190039150507f3031323334353637383961626364656600000000000000000000000000000000600a86061a8153600a85816119d8576119d7612d77565b5b0494506000850361198f575b819350505050919050565b611a0982826040518060200160405280600081525061211d565b5050565b80600660008481526020019081526020016000209081611a2d9190612f83565b507ff8e1a15aba9398e019f0b49df1a4fde98ee17ae345cb5f6b5e2c27f5033e8ce782604051611a5d91906126ce565b60405180910390a15050565b60008373ffffffffffffffffffffffffffffffffffffffff163b1115611c13578273ffffffffffffffffffffffffffffffffffffffff1663150b7a02868685856040518563ffffffff1660e01b8152600401611ac89493929190613198565b6020604051808303816000875af1925050508015611b0457506040513d601f19601f82011682018060405250810190611b0191906131f9565b60015b611b88573d8060008114611b34576040519150601f19603f3d011682016040523d82523d6000602084013e611b39565b606091505b506000815103611b8057836040517f64a0ae92000000000000000000000000000000000000000000000000000000008152600401611b779190612520565b60405180910390fd5b805181602001fd5b63150b7a0260e01b7bffffffffffffffffffffffffffffffffffffffffffffffffffffffff1916817bffffffffffffffffffffffffffffffffffffffffffffffffffffffff191614611c1157836040517f64a0ae92000000000000000000000000000000000000000000000000000000008152600401611c089190612520565b60405180910390fd5b505b5050505050565b606060405180602001604052806000815250905090565b6060611c3c826111e2565b506000611c47611c1a565b90506000815111611c675760405180602001604052806000815250611c92565b80611c7184611921565b604051602001611c829291906130a8565b6040516020818303038152906040525b915050919050565b60007f01ffc9a7000000000000000000000000000000000000000000000000000000007bffffffffffffffffffffffffffffffffffffffffffffffffffffffff1916827bffffffffffffffffffffffffffffffffffffffffffffffffffffffff1916149050919050565b60006002600083815260200190815260200160002060009054906101000a900473ffffffffffffffffffffffffffffffffffffffff169050919050565b8080611d7a5750600073ffffffffffffffffffffffffffffffffffffffff168273ffffffffffffffffffffffffffffffffffffffff1614155b15611eae576000611d8a846111e2565b9050600073ffffffffffffffffffffffffffffffffffffffff168373ffffffffffffffffffffffffffffffffffffffff1614158015611df557508273ffffffffffffffffffffffffffffffffffffffff168173ffffffffffffffffffffffffffffffffffffffff1614155b8015611e085750611e068184610fe6565b155b15611e4a57826040517fa9fbf51f000000000000000000000000000000000000000000000000000000008152600401611e419190612520565b60405180910390fd5b8115611eac57838573ffffffffffffffffffffffffffffffffffffffff168273ffffffffffffffffffffffffffffffffffffffff167f8c5be1e5ebec7d5bd14f71427d1e84f3dd0314c0f7b2291e5b200ac8c7c3b92560405160405180910390a45b505b836004600085815260200190815260200160002060006101000a81548173ffffffffffffffffffffffffffffffffffffffff021916908373ffffffffffffffffffffffffffffffffffffffff16021790555050505050565b611f11838383612141565b611fc557600073ffffffffffffffffffffffffffffffffffffffff168373ffffffffffffffffffffffffffffffffffffffff1603611f8657806040517f7e273289000000000000000000000000000000000000000000000000000000008152600401611f7d91906126ce565b60405180910390fd5b81816040517f177e802f000000000000000000000000000000000000000000000000000000008152600401611fbc929190613226565b60405180910390fd5b505050565b600080600090507a184f03e93ff9f4daa797ed6e38ed64bf6a1f0100000000000000008310612028577a184f03e93ff9f4daa797ed6e38ed64bf6a1f010000000000000000838161201e5761201d612d77565b5b0492506040810190505b6d04ee2d6d415b85acef81000000008310612065576d04ee2d6d415b85acef8100000000838161205b5761205a612d77565b5b0492506020810190505b662386f26fc10000831061209457662386f26fc10000838161208a57612089612d77565b5b0492506010810190505b6305f5e10083106120bd576305f5e10083816120b3576120b2612d77565b5b0492506008810190505b61271083106120e25761271083816120d8576120d7612d77565b5b0492506004810190505b6064831061210557606483816120fb576120fa612d77565b5b0492506002810190505b600a8310612114576001810190505b80915050919050565b6121278383612202565b61213c6121326112a7565b6000858585611a69565b505050565b60008073ffffffffffffffffffffffffffffffffffffffff168373ffffffffffffffffffffffffffffffffffffffff16141580156121f957508273ffffffffffffffffffffffffffffffffffffffff168473ffffffffffffffffffffffffffffffffffffffff1614806121ba57506121b98484610fe6565b5b806121f857508273ffffffffffffffffffffffffffffffffffffffff166121e08361126a565b73ffffffffffffffffffffffffffffffffffffffff16145b5b90509392505050565b600073ffffffffffffffffffffffffffffffffffffffff168273ffffffffffffffffffffffffffffffffffffffff16036122745760006040517f64a0ae9200000000000000000000000000000000000000000000000000000000815260040161226b9190612520565b60405180910390fd5b6000612282838360006112c1565b9050600073ffffffffffffffffffffffffffffffffffffffff168173ffffffffffffffffffffffffffffffffffffffff16146122f65760006040517f73c6ac6e0000000000000000000000000000000000000000000000000000000081526004016122ed9190612520565b60405180910390fd5b505050565b6000604051905090565b600080fd5b600080fd5b60007fffffffff0000000000000000000000000000000000000000000000000000000082169050919050565b6123448161230f565b811461234f57600080fd5b50565b6000813590506123618161233b565b92915050565b60006020828403121561237d5761237c612305565b5b600061238b84828501612352565b91505092915050565b60008115159050919050565b6123a981612394565b82525050565b60006020820190506123c460008301846123a0565b92915050565b600081519050919050565b600082825260208201905092915050565b60005b838110156124045780820151818401526020810190506123e9565b60008484015250505050565b6000601f19601f8301169050919050565b600061242c826123ca565b61243681856123d5565b93506124468185602086016123e6565b61244f81612410565b840191505092915050565b600060208201905081810360008301526124748184612421565b905092915050565b6000819050919050565b61248f8161247c565b811461249a57600080fd5b50565b6000813590506124ac81612486565b92915050565b6000602082840312156124c8576124c7612305565b5b60006124d68482850161249d565b91505092915050565b600073ffffffffffffffffffffffffffffffffffffffff82169050919050565b600061250a826124df565b9050919050565b61251a816124ff565b82525050565b60006020820190506125356000830184612511565b92915050565b612544816124ff565b811461254f57600080fd5b50565b6000813590506125618161253b565b92915050565b6000806040838503121561257e5761257d612305565b5b600061258c85828601612552565b925050602061259d8582860161249d565b9150509250929050565b6000806000606084860312156125c0576125bf612305565b5b60006125ce86828701612552565b93505060206125df86828701612552565b92505060406125f08682870161249d565b9150509250925092565b600060608201905081810360008301526126148186612421565b905081810360208301526126288185612421565b90506126376040830184612511565b949350505050565b600060808201905061265460008301876123a0565b81810360208301526126668186612421565b9050818103604083015261267a8185612421565b90506126896060830184612511565b95945050505050565b6000602082840312156126a8576126a7612305565b5b60006126b684828501612552565b91505092915050565b6126c88161247c565b82525050565b60006020820190506126e360008301846126bf565b92915050565b6126f281612394565b81146126fd57600080fd5b50565b60008135905061270f816126e9565b92915050565b6000806040838503121561272c5761272b612305565b5b600061273a85828601612552565b925050602061274b85828601612700565b9150509250929050565b600080fd5b600080fd5b7f4e487b7100000000000000000000000000000000000000000000000000000000600052604160045260246000fd5b61279782612410565b810181811067ffffffffffffffff821117156127b6576127b561275f565b5b80604052505050565b60006127c96122fb565b90506127d5828261278e565b919050565b600067ffffffffffffffff8211156127f5576127f461275f565b5b6127fe82612410565b9050602081019050919050565b82818337600083830152505050565b600061282d612828846127da565b6127bf565b9050828152602081018484840111156128495761284861275a565b5b61285484828561280b565b509392505050565b600082601f83011261287157612870612755565b5b813561288184826020860161281a565b91505092915050565b600080600080608085870312156128a4576128a3612305565b5b60006128b287828801612552565b945050602085013567ffffffffffffffff8111156128d3576128d261230a565b5b6128df8782880161285c565b935050604085013567ffffffffffffffff811115612900576128ff61230a565b5b61290c8782880161285c565b925050606085013567ffffffffffffffff81111561292d5761292c61230a565b5b6129398782880161285c565b91505092959194509250565b600067ffffffffffffffff8211156129605761295f61275f565b5b61296982612410565b9050602081019050919050565b600061298961298484612945565b6127bf565b9050828152602081018484840111156129a5576129a461275a565b5b6129b084828561280b565b509392505050565b600082601f8301126129cd576129cc612755565b5b81356129dd848260208601612976565b91505092915050565b60008060008060808587031215612a00576129ff612305565b5b6000612a0e87828801612552565b9450506020612a1f87828801612552565b9350506040612a308782880161249d565b925050606085013567ffffffffffffffff811115612a5157612a5061230a565b5b612a5d878288016129b8565b91505092959194509250565b60008060408385031215612a8057612a7f612305565b5b600083013567ffffffffffffffff811115612a9e57612a9d61230a565b5b612aaa8582860161285c565b925050602083013567ffffffffffffffff811115612acb57612aca61230a565b5b612ad78582860161285c565b9150509250929050565b60008060408385031215612af857612af7612305565b5b6000612b0685828601612552565b9250506020612b1785828601612552565b9150509250929050565b7f4e487b7100000000000000000000000000000000000000000000000000000000600052602260045260246000fd5b60006002820490506001821680612b6857607f821691505b602082108103612b7b57612b7a612b21565b5b50919050565b6000606082019050612b966000830186612511565b612ba360208301856126bf565b612bb06040830184612511565b949350505050565b7f5469636b657420646f6573206e6f742065786973740000000000000000000000600082015250565b6000612bee6015836123d5565b9150612bf982612bb8565b602082019050919050565b60006020820190508181036000830152612c1d81612be1565b9050919050565b600081905092915050565b6000612c3a826123ca565b612c448185612c24565b9350612c548185602086016123e6565b80840191505092915050565b6000612c6c8284612c2f565b915081905092915050565b7f5365617420616c72656164792074616b656e0000000000000000000000000000600082015250565b6000612cad6012836123d5565b9150612cb882612c77565b602082019050919050565b60006020820190508181036000830152612cdc81612ca0565b9050919050565b7f4e487b7100000000000000000000000000000000000000000000000000000000600052601160045260246000fd5b6000612d1d8261247c565b9150612d288361247c565b9250828201905080821115612d4057612d3f612ce3565b5b92915050565b6000612d528286612c2f565b9150612d5e8285612c2f565b9150612d6a8284612c2f565b9150819050949350505050565b7f4e487b7100000000000000000000000000000000000000000000000000000000600052601260045260246000fd5b6000612db18261247c565b9150612dbc8361247c565b925082612dcc57612dcb612d77565b5b828206905092915050565b60008190508160005260206000209050919050565b60006020601f8301049050919050565b600082821b905092915050565b600060088302612e397fffffffffffffffffffffffffffffffffffffffffffffffffffffffffffffffff82612dfc565b612e438683612dfc565b95508019841693508086168417925050509392505050565b6000819050919050565b6000612e80612e7b612e768461247c565b612e5b565b61247c565b9050919050565b6000819050919050565b612e9a83612e65565b612eae612ea682612e87565b848454612e09565b825550505050565b600090565b612ec3612eb6565b612ece818484612e91565b505050565b5b81811015612ef257612ee7600082612ebb565b600181019050612ed4565b5050565b601f821115612f3757612f0881612dd7565b612f1184612dec565b81016020851015612f20578190505b612f34612f2c85612dec565b830182612ed3565b50505b505050565b600082821c905092915050565b6000612f5a60001984600802612f3c565b1980831691505092915050565b6000612f738383612f49565b9150826002028217905092915050565b612f8c826123ca565b67ffffffffffffffff811115612fa557612fa461275f565b5b612faf8254612b50565b612fba828285612ef6565b600060209050601f831160018114612fed5760008415612fdb578287015190505b612fe58582612f67565b86555061304d565b601f198416612ffb86612dd7565b60005b8281101561302357848901518255600182019150602085019450602081019050612ffe565b86831015613040578489015161303c601f891682612f49565b8355505b6001600288020188555050505b505050505050565b600060808201905061306a60008301876126bf565b6130776020830186612511565b81810360408301526130898185612421565b9050818103606083015261309d8184612421565b905095945050505050565b60006130b48285612c2f565b91506130c08284612c2f565b91508190509392505050565b7f4e487b7100000000000000000000000000000000000000000000000000000000600052603260045260246000fd5b60006131068261247c565b91507fffffffffffffffffffffffffffffffffffffffffffffffffffffffffffffffff820361313857613137612ce3565b5b600182019050919050565b600081519050919050565b600082825260208201905092915050565b600061316a82613143565b613174818561314e565b93506131848185602086016123e6565b61318d81612410565b840191505092915050565b60006080820190506131ad6000830187612511565b6131ba6020830186612511565b6131c760408301856126bf565b81810360608301526131d9818461315f565b905095945050505050565b6000815190506131f38161233b565b92915050565b60006020828403121561320f5761320e612305565b5b600061321d848285016131e4565b91505092915050565b600060408201905061323b6000830185612511565b61324860208301846126bf565b939250505056fea2646970667358221220d694fa6111e94a9c1025729d499f6e955780cc13fe96c240a543698a328986f964736f6c63430008140033",
	"linkReferences": {},
	"deployedLinkReferences": {}
}